:020000040800F2
:10000000800600208D0100089F0300089703000868
:100010009B0300086D02000899050008000000001D
:10002000000000000000000000000000490400087B
:1000300071020008000000002504000835050008D2
:10004000A7010008A7010008A7010008A7010008F0
:10005000A7010008A7010008A7010008A7010008E0
:10006000A7010008A7010008A7010008A7010008D0
:10007000A7010008A7010008A7010008A7010008C0
:10008000A7010008A7010008A7010008A7010008B0
:10009000A7010008A7010008A7010008A7010008A0
:1000A000A7010008A7010008A7010008A701000890
:1000B000A7010008A7010008A7010008A701000880
:1000C000A7010008A7010008A7010008A701000870
:1000D000A7010008A7010008A7010008A701000860
:1000E000A7010008A7010008A701000800F002F816
:1000F00000F03CF80AA090E8000C82448344AAF186
:100100000107DA4501D100F031F8AFF2090EBAE883
:100110000F0013F0010F18BFFB1A43F0010318473B
:10012000DC080000FC080000103A24BF78C878C141
:10013000FAD8520724BF30C830C144BF04680C60ED
:10014000704700000023002400250026103A28BF35
:1001500078C1FBD8520728BF30C148BF0B60704739
:100160001FB500F037F81FBD10B510BD00F04BF8FB
:100170001146FFF7F5FF00F03DFC00F069F803B40D
:10018000FFF7F2FF03BC00F037F800000948804792
:1001900009480047FEE7FEE7FEE7FEE7FEE7FEE769
:1001A000FEE7FEE7FEE7FEE704480549054A064B81
:1001B0007047000039050008ED00000880000020AD
:1001C00080060020800200208002002070477047D7
:1001D0007047000070B5064C7C44064D7D4403E03A
:1001E000206820448047241DAC42F9D170BD000036
:1001F000400800004008000001491820ABBEFEE79F
:10020000260002007047754600F02CF8AE46050047
:100210006946534620F00700854618B020B5FFF721
:10022000C3FFBDE820404FF000064FF000074FF03D
:1002300000084FF0000B21F00701AC46ACE8C00904
:10024000ACE8C009ACE8C009ACE8C0098D4670470D
:1002500010B50446AFF300802046BDE81040FFF71C
:100260008EBF0000004870472000002000BFFEE75E
:1002700070472DE9F04102460025002600200023AA
:100280000024002791F803C00CF00F0591F803C07B
:100290000CF0100CBCF1000F03D091F802C04CEA36
:1002A000050591F800C0BCF1000F31D014680020A2
:1002B0002BE04FF0010C0CFA00F3B1F800C00CEA8F
:1002C00003069E4220D183004FF00F0C0CFA03F777
:1002D000BC4305FA03FC4CEA040491F803C0BCF1EA
:1002E000280F06D14FF0010C0CFA00FCC2F814C024
:1002F0000AE091F803C0BCF1480F05D14FF0010CA2
:100300000CFA00FCC2F810C0401C0828D1D31460BD
:10031000B1F800C0BCF1FF0F34DD546800202EE0BE
:1003200000F1080C4FF0010808FA0CF3B1F800C016
:100330000CEA03069E4221D183004FF00F0C0CFA09
:1003400003F7BC4305FA03FC4CEA040491F803C02C
:10035000BCF1280F05D100F1080C08FA0CF8C2F81E
:10036000148091F803C0BCF1480F07D100F1080CCC
:100370004FF0010808FA0CF8C2F81080401C082859
:10038000CED35460BDE8F081016170470AB10161CC
:1003900000E04161704700BFFEE700BFFEE7704725
:1003A00070B5002100230F22C47804B3154C2468D3
:1003B00004F4E064C4F5E064210AC1F10403CA4016
:1003C000447804FA03F184781440214309010E4C67
:1003D0000678A155047804F01F050124AC40057887
:1003E0006D11AD0005F1E025C5F8004109E0047884
:1003F00004F01F050124AC40044D0678761145F841
:10040000264070BD0CED00E000E400E080E100E07B
:1004100002490143024A1160704700000000FA05DA
:100420000CED00E07047000029B1064A92690243D2
:10043000044B9A6104E0034A92698243014B9A613A
:100440007047000000100240704710B500F002F83D
:1004500010BD00000CB500200190009033480068EA
:1004600040F480303149086000BF3048006800F433
:10047000003000900198401C0190009818B9019834
:10048000B0F5A06FF1D12948006800F4003010B138
:100490000120009001E0002000900098012843D145
:1004A0002348006840F010002149086008460068B1
:1004B00020F0030008600846006840F00200086071
:1004C0001A4840681949486008464068486008462C
:1004D000406840F4806048600846406820F47C1022
:1004E00048600846406840F4E810486008460068E4
:1004F00040F08070086000BF0C48006800F0007099
:100500000028F9D00948406820F0030007494860F6
:100510000846406840F00200486000BF0348406859
:1005200000F00C000828F9D10CBD000000100240BA
:10053000002002407047000010B51348006840F0EA
:1005400001001149086008464068104908400E49FA
:100550004860084600680E4908400B490860084694
:10056000006820F4802008600846406820F4FE00FF
:1005700048604FF41F008860FFF767FF4FF000608E
:100580000449086010BD0000001002400000FFF8A0
:10059000FFFFF6FE08ED00E000BFFEE708B54FF4F0
:1005A000A060FFF735FF17208DF8000001208DF8BF
:1005B000030000208DF801008DF802006846FFF767
:1005C000EFFE27208DF8000001208DF803000220A7
:1005D0008DF801008DF802006846FFF7E1FE08BDC6
:1005E00001461248814201D10420704710488142DF
:1005F00001D10820F9E70F48814201D11020F4E72A
:100600000D48814201D12020EFE70C48814201D101
:100610004020EAE70A48814201D18020E5E7094805
:10062000814201D18015E0E70020DEE700080140AB
:10063000000C01400010014000140140001801406E
:10064000001C01400020014010B500F027F8FFF722
:10065000A5FF10BD00B5034603E04FF47A7000F02B
:1006600005F8181EA3F10103F7D100BD00EBC0018E
:10067000C9004FF0E0225161002191610521116113
:1006800000BF4FF0E021096901F480310029F8D062
:1006900004214FF0E02211617047000008B50121EC
:1006A0000420FFF7C1FE10208DF803000620ADF8EE
:1006B000000003208DF8020069460448FFF7D9FDC9
:1006C00006210248FFF760FE08BD00000008014057
:1006D00070B504460D461646482332462946204644
:1006E00000F00CF80446204670BD70B504460D4677
:1006F000A1882A462068FFF749FE70BD2DE9F8431E
:1007000004460D4616461F462560A6802068FFF762
:1007100067FF80460121FFF787FEA088ADF8000043
:1007200003208DF802008DF8037069462068FFF7FA
:10073000A0FD2046BDE8F88370B505460C460CB117
:10074000012000E0002001462846FFF7CEFF70BDE3
:1007500070B504460D460DB1012000E000200146B1
:1007600004F10800FFF7C1FF70BD70B506460D46E5
:10077000002410E08020204100EA05013046FFF708
:10078000E7FF01213046FFF7D7FF00213046FFF792
:10079000D3FF601CC4B2082CECDB01213046FFF70C
:1007A000CBFF00213046FFF7C7FF70BD70B5044690
:1007B0000D46204600F099F878212046FFF7D5FF36
:1007C00000212046FFF7D1FF29462046FFF7CDFF45
:1007D000204600F07BF870BD10B50446AE212046DF
:1007E000FFF7E4FFD5212046FFF7E0FF80212046F8
:1007F000FFF7DCFFA8212046FFF7D8FF3F21204666
:10080000FFF7D4FFD3212046FFF7D0FF0021204679
:10081000FFF7CCFF40212046FFF7C8FFA12120466B
:10082000FFF7C4FFC8212046FFF7C0FFDA212046AA
:10083000FFF7BCFF12212046FFF7B8FF81212046B9
:10084000FFF7B4FFCF212046FFF7B0FFD9212046A4
:10085000FFF7ACFFF1212046FFF7A8FFDB21204680
:10086000FFF7A4FF30212046FFF7A0FFA421204678
:10087000FFF79CFFA6212046FFF798FF8D21204619
:10088000FFF794FF14212046FFF790FFAF21204689
:10089000FFF78CFF204600F001F810BD70B506464A
:1008A000002410E000222146304600F02DF80025FB
:1008B00005E00021304600F03CF8681CC5B2802DF0
:1008C000F7DB601CC4B2082CECDB70BD10B504462D
:1008D00000212046FFF73CFF01212046FFF72CFFB7
:1008E00001212046FFF734FF10BD10B50446012159
:1008F0002046FFF72DFF00212046FFF729FF0021AA
:100900002046FFF719FF10BD70B506460D46144688
:1009100045F0B0013046FFF749FF102040EA1411BE
:100920003046FFF743FF04F00F013046FFF73EFF6C
:1009300070BD70B504460D462046FFF7D6FF7821FE
:100940002046FFF712FF40212046FFF70EFF294601
:100950002046FFF70AFF2046FFF7B8FF70BD2DE9DC
:10096000F04104460E4617461D46DDF81880142354
:100970003A4631462046FFF7C1FE0446142342465C
:10098000294604F10800FFF7B9FEA0F1080401218F
:100990002046FFF7D1FE01212046FFF7D9FE4FF494
:1009A000FA70FFF757FE2046FFF716FF2046BDE816
:1009B000F081000008B54FF400700A4B4210194650
:1009C00000900948FFF7CBFF4FF4807205490748B4
:1009D000FFF77EFE4FF4007202490548FFF778FEEC
:1009E00008BD0000000C01401000002000000020A5
:1009F00008000020FFF728FE00BFFEE7200A0008DD
:100A0000000000201000000028010008300A000843
:100A100010000020700600004401000899FFFFFF4D
:100A200000000000000000000000000000000000C6
:04000005080000ED02
:00000001FF
