:020000040800F2
:10000000E00600208D010008E3040008DB0400087E
:10001000DF0400089F030008DD090008000000005D
:100020000000000000000000000000008106000841
:10003000A303000800000000690500086D07000820
:10004000A7010008A7010008A7010008A7010008F0
:10005000A7010008A7010008A7010008A7010008E0
:10006000A7010008A7010008A7010008A7010008D0
:10007000A7010008A7010008A7010008A7010008C0
:10008000A7010008A7010008A7010008A7010008B0
:10009000A7010008A7010008A7010008A7010008A0
:1000A000A7010008A7010008A7010008A701000890
:1000B000A7010008A7010008A7010008A701000880
:1000C000A7010008A7010008A7010008A701000870
:1000D000A7010008A7010008A7010008A701000860
:1000E000A7010008A7010008A701000800F002F816
:1000F00000F03CF80AA090E8000C82448344AAF186
:100100000107DA4501D100F031F8AFF2090EBAE883
:100110000F0013F0010F18BFFB1A43F0010318473B
:1001200090100000B0100000103A24BF78C878C1C9
:10013000FAD8520724BF30C830C144BF04680C60ED
:10014000704700000023002400250026103A28BF35
:1001500078C1FBD8520728BF30C148BF0B60704739
:100160001FB500F077F81FBD10B510BD00F0AEF858
:100170001146FFF7F5FF00F0EDFF00F0CCF803B4F7
:10018000FFF7F2FF03BC00F093F800000948804736
:1001900009480047FEE7FEE7FEE7FEE7FEE7FEE769
:1001A000FEE7FEE7FEE7FEE704480549054A064B81
:1001B0007047000071070008ED000008E000002013
:1001C000E0060020E0020020E00200200EB5054617
:1001D00014460E4613A000F05AF8284600F057F8CF
:1001E00016A000F054F8304600F051F815A000F0C9
:1001F0004EF800218DF80B100A210DF10A008DF840
:100200000A1008E094FBF1F201FB124294FBF1F4B6
:10021000303200F8012D002CF4DC00F038F800F04A
:100220002BF800002A2A2A20617373657274696FA3
:100230006E206661696C65643A2000002C20666956
:100240006C6520002C206C696E652000704770473B
:100250007047000070B5064C7C44064D7D4403E0B9
:10026000206820448047241DAC42F9D170BD0000B5
:10027000740F0000780F000010B5002000F01EF889
:10028000FFF772FFBDE81040012000F011B810B573
:10029000044602E0641C00F004F820780028F9D13C
:1002A00010BD08B569468DF800000320ABBE08BD3F
:1002B00001491820ABBEFEE72600020010B500F091
:1002C00039F8BDE8104000F02FB87047754600F0CF
:1002D00049F8AE4605006946534620F007008546BA
:1002E00018B020B5FFF760FFBDE820404FF00006D2
:1002F0004FF000074FF000084FF0000B21F007010E
:10030000AC46ACE8C009ACE8C009ACE8C009ACE850
:10031000C0098D46704710B50446AFF300802046F3
:10032000BDE81040FFF72BBF002801D0FFF7C0BF8A
:100330007047000010B5002102A000F017F801205E
:1003400010BD0000534947414252543A2041626E69
:100350006F726D616C207465726D696E6174696F26
:100360006E000000004870477C00002070B5054614
:100370000C460A2000E06D1CFFF793FF35B128788A
:100380000028F8D102E0641CFFF78BFF14B120783D
:100390000028F8D1BDE870400A20FFF782BF00BFF7
:1003A000FEE770472DE9F0410246002500260020B7
:1003B00000230024002791F803C00CF00F0591F8EA
:1003C00003C00CF0100CBCF1000F03D091F802C078
:1003D0004CEA050591F800C0BCF1000F31D014685B
:1003E00000202BE04FF0010C0CFA00F3B1F800C034
:1003F0000CEA03069E4220D183004FF00F0C0CFA4A
:1004000003F7BC4305FA03FC4CEA040491F803C06B
:10041000BCF1280F06D14FF0010C0CFA00FCC2F819
:1004200014C00AE091F803C0BCF1480F05D14FF0A9
:10043000010C0CFA00FCC2F810C0401C0828D1D3F3
:100440001460B1F800C0BCF1FF0F34DD5468002027
:100450002EE000F1080C4FF0010808FA0CF3B1F897
:1004600000C00CEA03069E4221D183004FF00F0C1E
:100470000CFA03F7BC4305FA03FC4CEA040491F8B8
:1004800003C0BCF1280F05D100F1080C08FA0CF8E4
:10049000C2F8148091F803C0BCF1480F07D100F1F5
:1004A000080C4FF0010808FA0CF8C2F81080401C44
:1004B0000828CED35460BDE8F0810246002093683E
:1004C0000B400BB1012000E0002070470161704734
:1004D0000AB1016100E04161704700BFFEE700BF63
:1004E000FEE7704770B5002100230F22C47804B3E3
:1004F000154C246804F4E064C4F5E064210AC1F1F9
:100500000403CA40447804FA03F184781440214378
:1005100009010E4C0678A155047804F01F0501244A
:10052000AC4005786D11AD0005F1E025C5F800413E
:1005300009E0047804F01F050124AC40044D06785E
:10054000761145F8264070BD0CED00E000E400E0B7
:1005500080E100E002490143024A11607047000057
:100560000000FA050CED00E07047000029B1064AD2
:10057000D2690243044BDA6104E0034AD269824340
:10058000014BDA61704700000010024029B1064AB1
:1005900092690243044B9A6104E0034A92698243E0
:1005A000014B9A61704700000010024030B50021F5
:1005B0000022002400232D4D6D6805F00C0121B1AF
:1005C000042905D0082923D105E0294D056022E042
:1005D000274D05601FE0254D6D6805F47012234D11
:1005E0006D6805F48034022505EB92421CB9214D5B
:1005F000554305600BE01D4D6D6805F400351DB1D8
:100600001C4D5543056002E0194D5543056002E05D
:10061000174D056000BF00BF144D6D6805F0F00177
:100620000909154D6B5C0568DD4045600F4D6D682F
:1006300005F4E061090A104D6B5C4568DD4085609A
:100640000A4D6D6805F46051C90A0B4D6B5C456835
:10065000DD40C560054D6D6805F44041890B074DCF
:100660006B5CC568B5FBF3F5056130BD0010024059
:1006700000127A0000093D00000000201000002058
:10068000704710B500F002F810BD00000CB5002056
:10069000019000903348006840F480303149086090
:1006A00000BF3048006800F4003000900198401C02
:1006B0000190009818B90198B0F5A06FF1D12948C0
:1006C000006800F4003010B10120009001E000202B
:1006D00000900098012843D12348006840F01000A2
:1006E000214908600846006820F0030008600846B9
:1006F000006840F0020008601A48406819494860E4
:100700000846406848600846406840F48060486099
:100710000846406820F47C1048600846406840F471
:10072000E81048600846006840F08070086000BF2C
:100730000C48006800F000700028F9D009484068B3
:1007400020F00300074948600846406840F0020076
:10075000486000BF0348406800F00C000828F9D149
:100760000CBD000000100240002002407047000055
:1007700010B51348006840F00100114908600846B0
:100780004068104908400E494860084600680E4914
:1007900008400B4908600846006820F48020086083
:1007A0000846406820F4FE0048604FF41F0088604F
:1007B000FFF767FF4FF000600449086010BD0000BC
:1007C000001002400000FFF8FFFFF6FE08ED00E019
:1007D00021B1028842F00102028004E002884FF653
:1007E000FE731A40028070471AB183890B438381DC
:1007F00002E083898B4383817047000000220288D6
:100800001D4B98420ED01D4B98420BD0B0F1804F3B
:1008100008D01B4B984205D01A4B984202D01A4B75
:10082000984204D14FF68F731A404B881A43174BE6
:10083000984207D0164B984204D04FF6FF431A4017
:10084000CB881A4302808B8883850B8803850A4BEB
:1008500098420BD0094B984208D00E4B984205D0D5
:100860000D4B984202D00D4B984201D10B7A038672
:100870000123838270470000002C014000340140B6
:100880000004004000080040000C00400010004040
:100890000014004000400140004401400048014075
:1008A00021B1828942F40052828104E082894DF6AE
:1008B000FF731A4082817047F0B50346002400267A
:1008C0000025002040F66A17B94200D100BF184643
:1008D000C1F3421401F01F06012707FA06F5012CA7
:1008E00001D10C3004E0022C01D1103000E01430B2
:1008F0001AB107682F43076002E00768AF4307603B
:10090000F0BD00002DE9F04786B005460E460024F4
:10091000A24600BFA1460027B08900B100BF2F4604
:100920002C8A4CF6FF700440F08804432C82AC897A
:100930004EF6F3100440B0883189084371890843AA
:100940000443AC81AC8A4FF6FF400440B0890443B5
:10095000AC8201A8FFF72AFE1F48874202D1DDF8CA
:1009600010A001E0DDF80CA0A88900F4004040B11F
:100970000AEBCA0000EB0A1031684900B0FBF1F83D
:1009800007E00AEBCA0000EB0A1031688900B0FBEF
:10099000F1F86420B8FBF0F004012009642101FBA8
:1009A0001089A88900F4004040B1322000EBC90052
:1009B000B0FBF1F000F00700044308E0322000EB48
:1009C00009106421B0FBF1F000F00F0004432C810A
:1009D00006B0BDE8F08700000038014000BFFEE728
:1009E00010B50446032C01DDFF2010BD601E034A34
:1009F00032F810100248FFF760FDF6E760110008BA
:100A00000008014008B54FF4A060FFF7A3FD1720D0
:100A10008DF8000001208DF8030000208DF8010002
:100A20008DF802006846FFF75DFD27208DF8000075
:100A300001208DF8030002208DF801008DF80200DE
:100A40006846FFF74FFD08BD01461248814201D1BB
:100A5000042070471048814201D10820F9E70F486F
:100A6000814201D11020F4E70D48814201D12020BC
:100A7000EFE70C48814201D14020EAE70A48814271
:100A800001D18020E5E70948814201D18015E0E7E6
:100A90000020DEE700080140000C0140001001408A
:100AA0000014014000180140001C014000200140DA
:100AB00010B500F0E1F8FFF7A5FF00F07FF84FF464
:100AC000E151142000F001F810BD7FB505460C4639
:100AD00001210846FFF74AFD681E80B2ADF8080004
:100AE000601E80B2ADF804000020ADF80A00ADF839
:100AF000060001A94FF08040FFF780FE0122114659
:100B00009007FFF771FE1C208DF8000000208DF883
:100B1000010003208DF8020001208DF803006846D3
:100B2000FFF7E0FC01218807FFF752FE7FBD0000C0
:100B300010B502460B46002115E001EB41000C4CBC
:100B400054F8200090420CD101EB410004EB8000EE
:100B50008088984205D101EB410004EB8000806859
:100B600010BD481CC1B20629E7D30020F8E70000F9
:100B70006811000800B5034603E04FF47A7000F0F6
:100B800005F8181EA3F10103F7D100BD00EBC00169
:100B9000C9004FF0E02251610021916105211161EE
:100BA00000BF4FF0E021096901F480310029F8D03D
:100BB00004214FF0E02211617047000008B50121C7
:100BC0000420FFF7E3FC4FF47060ADF8000048200C
:100BD0008DF8030069460248FFF7E4FB08BD0000FA
:100BE000000801402348007901280CD021480079F1
:100BF000012804D01F480079022800D000BF00203F
:100C00001C49087135E01B48007C01280CD01948AC
:100C1000007C012804D01748007C022800D000BFC7
:100C200000211448017424E01248007F01280CD0F0
:100C30001048007F012804D00E48007F022800D011
:100C400000BF00210B48017713E00A4890F8280004
:100C500001280ED0074890F82800012805D0054843
:100C600090F82800022800D000BF0021014880F839
:100C7000281070471400002008B501210420FFF758
:100C800085FC10208DF803000620ADF8000003203D
:100C90008DF8020069460448FFF784FB06210248EC
:100CA000FFF714FC08BD00000008014070B50446C1
:100CB0000D46A1882A462068FFF70AFC70BD2DE981
:100CC000F84304460D4616461F462560A680206858
:100CD000FFF7BAFE80460121FFF758FCA088ADF867
:100CE000000003208DF802008DF80370694620682B
:100CF000FFF758FB2046BDE8F88370B505460C4663
:100D00000CB1012000E0002001462846FFF7CEFF8D
:100D100070BD70B504460D460DB1012000E0002005
:100D2000014604F10800FFF7C1FF70BD70B506462B
:100D30000D46002410E08020204100EA05013046E5
:100D4000FFF7E7FF01213046FFF7D7FF00213046CC
:100D5000FFF7D3FF601CC4B2082CECDB0121304646
:100D6000FFF7CBFF00213046FFF7C7FF70BD70B51E
:100D700004460D46204600F099F878212046FFF7FA
:100D8000D5FF00212046FFF7D1FF29462046FFF777
:100D9000CDFF204600F07BF870BD10B50446AE21B3
:100DA0002046FFF7E4FFD5212046FFF7E0FF802132
:100DB0002046FFF7DCFFA8212046FFF7D8FF3F21A0
:100DC0002046FFF7D4FFD3212046FFF7D0FF0021B4
:100DD0002046FFF7CCFF40212046FFF7C8FFA121A6
:100DE0002046FFF7C4FFC8212046FFF7C0FFDA21E5
:100DF0002046FFF7BCFF12212046FFF7B8FF8121F4
:100E00002046FFF7B4FFCF212046FFF7B0FFD921DE
:100E10002046FFF7ACFFF1212046FFF7A8FFDB21BA
:100E20002046FFF7A4FF30212046FFF7A0FFA421B2
:100E30002046FFF79CFFA6212046FFF798FF8D2153
:100E40002046FFF794FF14212046FFF790FFAF21C3
:100E50002046FFF78CFF204600F001F810BD70B56A
:100E60000646002410E000222146304600F02DF80E
:100E7000002505E00021304600F03CF8681CC5B2B2
:100E8000802DF7DB601CC4B2082CECDB70BD10B504
:100E9000044600212046FFF73CFF01212046FFF7D2
:100EA0002CFF01212046FFF734FF10BD10B504468A
:100EB00001212046FFF72DFF00212046FFF729FFE3
:100EC00000212046FFF719FF10BD70B506460D46FC
:100ED000144645F0B0013046FFF749FF102040EAC4
:100EE00014113046FFF743FF04F00F013046FFF7BF
:100EF0003EFF70BD70B504460D462046FFF7D6FF95
:100F000078212046FFF712FF40212046FFF70EFF11
:100F100029462046FFF70AFF2046FFF7B8FF70BDBD
:100F20002DE9F04104460E4617461D46DDF81880AF
:100F300014233A4631462046FFF7C1FE04461423E7
:100F40004246294604F10800FFF7B9FEA0F1080463
:100F500001212046FFF7D1FE01212046FFF7D9FEEF
:100F60004FF4FA70FFF706FE2046FFF716FF204603
:100F7000BDE8F0812DE9F04F85B004460F4690465C
:100F80001D46DDE90E9B1823424639462046FFF7F1
:100F900096FE044604234A46294604F10800FFF75A
:100FA0008EFEA0F1080441463846FFF7C1FD064613
:100FB00049462846FFF7BCFD824616B1BAF1000F3C
:100FC00004D1362231A138A0FFF700F9564504D0EC
:100FD0003C222EA13DA0FFF7F9F84A49206988423A
:100FE00004D101218803FFF7D1FA10E046492069B6
:100FF000884204D101214804FFF7B8FA07E04349C9
:101000002069884203D101218804FFF7AFFA2661E5
:10101000CDF804B00020ADF80800ADF80A00ADF836
:101020000C00ADF810000C20ADF80E0001A92069ED
:10103000FFF768FC012240F225512069FFF73CFCD4
:1010400001212069FFF72CFC2E492069884203D139
:1010500025208DF800000AE02B492069884203D141
:1010600026208DF8000002E027208DF800000020E7
:101070008DF801008DF8020001208DF8030068460C
:10108000FFF730FA204605B0BDE8F08F4861726482
:10109000776172655C7573617274325C75736172CD
:1010A00074322E6370700000302026262022496E94
:1010B00076616C69642055534152542070696E20EA
:1010C0006D617070696E6721220000003020262655
:1010D000202255534152545F545820616E6420556C
:1010E000534152545F5258206D7573742075736567
:1010F000207468652073616D652074696D65722167
:101100002200000000380140004400400048004038
:101110001CB54FF4E1300821044B0422CDE9001046
:1011200019460348FFF726FF1CBD000000080140D8
:101130004400002008B54FF40070044B42101946DB
:1011400000900348FFF7ECFE08BD0000000C0140D2
:101150006C000020FFF7ACFC01E0FFF743FDFCE76B
:101160000001000200040008000801400002000025
:101170000038014000080140000400000038014030
:101180000008014004000000004400400008014045
:101190000800000000440040000C01400004000072
:1011A00000480040000C01400008000000480040DA
:1011B000D8110008000000204400000028010008A9
:1011C0001C120008440000209C0600004401000896
:1011D00041FFFFFF61FFFFFF000000000102030469
:1011E00001020304060708090204060800000100C2
:1011F00000000000E10900080000010000000000FC
:10120000E10900080000010000000000E1090008F9
:0C1210000000010000000000E1090008DF
:04000005080000ED02
:00000001FF
