:020000040800F2
:10000000880600208D0100089B0300089303000868
:10001000970300086D020008C507000800000000F3
:10002000000000000000000000000000390500088A
:1000300071020008000000002104000825060008E5
:10004000A7010008A7010008A7010008A7010008F0
:10005000A7010008A7010008A7010008A7010008E0
:10006000A7010008A7010008A7010008A7010008D0
:10007000A7010008A7010008A7010008A7010008C0
:10008000A7010008A7010008A7010008A7010008B0
:10009000A7010008A7010008A7010008A7010008A0
:1000A000A7010008A7010008A7010008A701000890
:1000B000A7010008A7010008A7010008A701000880
:1000C000A7010008A7010008A7010008A701000870
:1000D000A7010008A7010008A7010008A701000860
:1000E000A7010008A7010008A701000800F002F816
:1000F00000F03CF80AA090E8000C82448344AAF186
:100100000107DA4501D100F031F8AFF2090EBAE883
:100110000F0013F0010F18BFFB1A43F0010318473B
:10012000AC120000CC120000103A24BF78C878C18D
:10013000FAD8520724BF30C830C144BF04680C60ED
:10014000704700000023002400250026103A28BF35
:1001500078C1FBD8520728BF30C148BF0B60704739
:100160001FB500F037F81FBD10B510BD00F04BF8FB
:100170001146FFF7F5FF00F005FE00F069F803B443
:10018000FFF7F2FF03BC00F037F800000948804792
:1001900009480047FEE7FEE7FEE7FEE7FEE7FEE769
:1001A000FEE7FEE7FEE7FEE704480549054A064B81
:1001B0007047000029060008ED00000888000020B4
:1001C00088060020880200208802002070477047BF
:1001D0007047000070B5064C7C44064D7D4403E03A
:1001E000206820448047241DAC42F9D170BD000036
:1001F000101200001012000001491820ABBEFEE7EB
:10020000260002007047754600F02CF8AE46050047
:100210006946534620F00700854618B020B5FFF721
:10022000C3FFBDE820404FF000064FF000074FF03D
:1002300000084FF0000B21F00701AC46ACE8C00904
:10024000ACE8C009ACE8C009ACE8C0098D4670470D
:1002500010B50446AFF300802046BDE81040FFF71C
:100260008EBF0000004870472400002000BFFEE75A
:1002700070472DE9F04102460025002600200023AA
:100280000024002791F803C00CF00F0591F803C07B
:100290000CF0100CBCF1000F03D091F802C04CEA36
:1002A000050591F800C0BCF1000F31D014680020A2
:1002B0002BE04FF0010C0CFA00F3B1F800C00CEA8F
:1002C00003069E4220D183004FF00F0C0CFA03F777
:1002D000BC4305FA03FC4CEA040491F803C0BCF1EA
:1002E000280F06D14FF0010C0CFA00FCC2F814C024
:1002F0000AE091F803C0BCF1480F05D14FF0010CA2
:100300000CFA00FCC2F810C0401C0828D1D31460BD
:10031000B1F800C0BCF1FF0F34DD546800202EE0BE
:1003200000F1080C4FF0010808FA0CF3B1F800C016
:100330000CEA03069E4221D183004FF00F0C0CFA09
:1003400003F7BC4305FA03FC4CEA040491F803C02C
:10035000BCF1280F05D100F1080C08FA0CF8C2F81E
:10036000148091F803C0BCF1480F07D100F1080CCC
:100370004FF0010808FA0CF8C2F81080401C082859
:10038000CED35460BDE8F0810AB1016100E0416163
:10039000704700BFFEE700BFFEE7704770B5002161
:1003A00000230F22C47804B3154C246804F4E064DD
:1003B000C4F5E064210AC1F10403CA40447804FA98
:1003C00003F184781440214309010E4C0678A155AD
:1003D000047804F01F050124AC4005786D11AD00D0
:1003E00005F1E025C5F8004109E0047804F01F0597
:1003F0000124AC40044D0678761145F8264070BDC6
:100400000CED00E000E400E080E100E0024901437F
:10041000024A1160704700000000FA050CED00E090
:100420007047000029B1064AD2690243044BDA61E1
:1004300004E0034AD2698243014BDA61704700004D
:100440000010024029B1064A92690243044B9A61A6
:1004500004E0034A92698243014B9A6170470000AD
:100460000010024030B500210022002400232D4D51
:100470006D6805F00C0121B1042905D0082923D1AC
:1004800005E0294D056022E0274D05601FE0254D60
:100490006D6805F47012234D6D6805F480340225F3
:1004A00005EB92421CB9214D554305600BE01D4DF3
:1004B0006D6805F400351DB11C4D5543056002E023
:1004C000194D5543056002E0174D056000BF00BFA0
:1004D000144D6D6805F0F0010909154D6B5C056858
:1004E000DD4045600F4D6D6805F4E061090A104D6F
:1004F0006B5C4568DD4085600A4D6D6805F46051B0
:10050000C90A0B4D6B5C4568DD40C560054D6D68E3
:1005100005F44041890B074D6B5CC568B5FBF3F5ED
:10052000056130BD0010024000127A0000093D0054
:100530000000002010000020704710B500F002F805
:1005400010BD00000CB500200190009033480068F9
:1005500040F480303149086000BF3048006800F442
:10056000003000900198401C0190009818B9019843
:10057000B0F5A06FF1D12948006800F4003010B147
:100580000120009001E0002000900098012843D154
:100590002348006840F010002149086008460068C0
:1005A00020F0030008600846006840F00200086080
:1005B0001A4840681949486008464068486008463B
:1005C000406840F4806048600846406820F47C1031
:1005D00048600846406840F4E810486008460068F3
:1005E00040F08070086000BF0C48006800F00070A8
:1005F0000028F9D00948406820F003000749486006
:100600000846406840F00200486000BF0348406868
:1006100000F00C000828F9D10CBD000000100240C9
:10062000002002407047000010B51348006840F0F9
:1006300001001149086008464068104908400E4909
:100640004860084600680E4908400B4908600846A3
:10065000006820F4802008600846406820F4FE000E
:1006600048604FF41F008860FFF767FF4FF000609D
:100670000449086010BD0000001002400000FFF8AF
:10068000FFFFF6FE08ED00E021B1828942F400523E
:10069000828104E082894DF6FF731A40828170479F
:1006A000F0B50346002400260025002040F66A1716
:1006B000B94200D100BF1846C1F3421401F01F0631
:1006C000012707FA06F5012C01D10C3004E0022CB9
:1006D00001D1103000E014301AB107682F430760D1
:1006E00002E00768AF430760F0BD00002DE9F04766
:1006F00086B005460E460024A24600BFA14600274C
:10070000B08900B100BF2F462C8A4CF6FF70044020
:10071000F08804432C82AC894EF6F3100440B08874
:1007200031890843718908430443AC81AC8A4FF690
:10073000FF400440B0890443AC8201A8FFF792FE59
:100740001F48874202D1DDF810A001E0DDF80CA0BF
:10075000A88900F4004040B10AEBCA0000EB0A107F
:1007600031684900B0FBF1F807E00AEBCA0000EB82
:100770000A1031688900B0FBF1F86420B8FBF0F092
:1007800004012009642101FB1089A88900F40040BC
:1007900040B1322000EBC900B0FBF1F000F00700DF
:1007A000044308E0322000EB09106421B0FBF1F0B3
:1007B00000F00F0004432C8106B0BDE8F087000074
:1007C0000038014000BFFEE700B587B001214804B2
:1007D000FFF728FE01210420FFF734FE18208DF8D2
:1007E0001B000420ADF8180003208DF81A0006A99C
:1007F0002048FFF73EFD48208DF81B000820ADF88B
:10080000180003208DF81A0006A91A48FFF731FDD9
:100810004FF4E13002900020ADF814000C20ADF848
:1008200012000020ADF81000ADF80E00ADF80C007D
:1008300002A91148FFF75AFF012240F225510E4844
:10084000FFF72EFF4FF4A060FFF7E0FD26208DF8A4
:10085000040001208DF807008DF805008DF80600D2
:1008600001A8FFF79BFD01210348FFF70DFF07B02B
:1008700000BD00000008014000440040014612484D
:10088000814201D1042070471048814201D10820E3
:10089000F9E70F48814201D11020F4E70D48814269
:1008A00001D12020EFE70C48814201D14020EAE746
:1008B0000A48814201D18020E5E70948814201D1FF
:1008C0008015E0E70020DEE700080140000C014051
:1008D000001001400014014000180140001C0140BC
:1008E0000020014000B5034603E04FF47A7000F0A9
:1008F00005F8181EA3F10103F7D100BD00EBC001FC
:10090000C9004FF0E0225161002191610521116180
:1009100000BF4FF0E021096901F480310029F8D0CF
:1009200004214FF0E0221161704770B504460D4676
:10093000A1882A462068FFF727FD70BD2DE9F843FE
:1009400004460D4616461F462560A6802068FFF720
:1009500095FF80460121FFF775FDA088ADF80000E6
:1009600003208DF802008DF8037069462068FFF7B8
:1009700080FC2046BDE8F88370B505460C460CB1F6
:10098000012000E0002001462846FFF7CEFF70BDA1
:1009900070B504460D460DB1012000E0002001466F
:1009A00004F10800FFF7C1FF70BD2DE9F047804654
:1009B000894615461E46089F002414E0381B421E37
:1009C0000221404600F099F8B6FBF0F000F001007B
:1009D00000F1300A2819C2B253464946404600F099
:1009E0001FF9601CC4B2BC42E8DBBDE8F0872DE90A
:1009F000F0410746884616461D46002408E02B5D58
:100A00003019C2B24146384600F00AF9601CC4B23F
:100A1000285D0028F3D1BDE8F08170B506460D468B
:100A2000002410E08020204100EA05013046FFF755
:100A3000AFFF01213046FFF79FFF00213046FFF74F
:100A40009BFF601CC4B2082CECDB01213046FFF791
:100A500093FF00213046FFF78FFF70BD70B504464D
:100A60000D46204600F01AF978212046FFF7D5FF01
:100A700000212046FFF7D1FF29462046FFF7CDFF92
:100A8000204600F0BEF870BD2DE9F05F81468A4631
:100A900017461D46DDF82880002D07DB2B233A463C
:100AA0005146484600F0BCF82E4606E02D233A4653
:100AB0005146484600F0B4F86E42002419E0A8EB15
:100AC0000400421E0A21484600F017F8B6FBF0F079
:100AD0000A21B0FBF1F201FB120000F1300B3819D2
:100AE000401CC2B25B465146484600F099F8601C73
:100AF000C4B24445E3DBBDE8F09F30B503460120B6
:100B000000E04843141EA2F10102FAD130BD10B535
:100B10000446AE212046FFF7A1FFD5212046FFF76E
:100B20009DFF80212046FFF799FFA8212046FFF76F
:100B300095FF3F212046FFF791FFD3212046FFF785
:100B40008DFF00212046FFF789FF40212046FFF757
:100B500085FFA1212046FFF781FFC8212046FFF72E
:100B60007DFFDA212046FFF779FF12212046FFF7AB
:100B700075FF81212046FFF771FFCF212046FFF747
:100B80006DFFD9212046FFF769FFF1212046FFF7CD
:100B900065FFDB212046FFF761FF30212046FFF78C
:100BA0005DFFA4212046FFF759FFA6212046FFF74D
:100BB00055FF8D212046FFF751FF14212046FFF7F6
:100BC0004DFFAF212046FFF749FF204600F001F816
:100BD00010BD70B50646002410E0002221463046C4
:100BE00000F06BF8002505E00021304600F07AF8AF
:100BF000681CC5B2802DF7DB601CC4B2082CECDB8E
:100C000070BD10B5044600212046FFF7C1FE01214A
:100C10002046FFF7B1FE01212046FFF7B9FE10BDC7
:100C20002DE9F04180460D4616461F46701EC0064F
:100C3000020E681E4006010E404600F03EF80024F9
:100C40000AE0A7F12000144A02EB0010015D4046C3
:100C500000F048F8601CC4B2082CF2DB701EC0061D
:100C6000020E681E012303EB4000C1B2404600F0B3
:100C700024F800240CE0A7F12000074A02EB001240
:100C800004F10800115C404600F02CF8601CC4B26E
:100C9000082CF0DBBDE8F081DC0D000810B504463F
:100CA00001212046FFF774FE00212046FFF770FE69
:100CB00000212046FFF760FE10BD70B506460D46C8
:100CC000144645F0B0013046FFF7C8FE102040EA58
:100CD00014113046FFF7C2FE04F00F013046FFF753
:100CE000BDFE70BD70B504460D462046FFF7D6FF29
:100CF00078212046FFF791FE40212046FFF78DFE28
:100D000029462046FFF789FE2046FFF77AFF70BD8F
:100D10002DE9F04104460E4617461D46DDF81880C1
:100D200014233A4631462046FFF708FE04461423B2
:100D30004246294604F10800FFF700FEA0F108042E
:100D400001212046FFF718FE01212046FFF720FE73
:100D50004FF4FA70FFF7C6FD2046FFF7D8FE204695
:100D6000BDE8F08108B54FF40070044B42101946FD
:100D700000900348FFF7CCFF08BD0000000C0140C5
:100D80001400002008B54123012211460F48FFF747
:100D900047FF0FA3032201210C48FFF728FE022082
:100DA0006FF041030722014600900848FFF76CFEF0
:100DB00010204AF655230122042100900348FFF732
:100DC000F4FDFFF701FD00BFFEE700001400002066
:100DD00048656C6C6F576F726C64210000000000F6
:100DE000000000000000000000000000000000F80B
:100DF00000000000000000333000000000100C066E
:100E0000100C0600000000000000000040C0784008
:100E1000C0784000043F04043F040400007088FCD4
:100E200008300000001820FF211E0000F008F0002C
:100E3000E018000000211C031E211E0000F008889D
:100E4000700000001E2123241927211010160E0007
:100E5000000000000000000000000000000000E0B2
:100E600018040200000000071820400000020418C7
:100E7000E00000000040201807000000404080F023
:100E8000804040000202010F01020200000000F059
:100E9000000000000101011F01010100000000002D
:100EA0000000000080B070000000000000000000A2
:100EB000000000000001010101010101000000002B
:100EC00000000000003030000000000000000000C2
:100ED00080601804006018060100000000E010089F
:100EE0000810E000000F102020100F00001010F874
:100EF000000000000020203F2020000000700808B3
:100F00000888700000302824222130000030088832
:100F1000884830000018202020110E000000C0205A
:100F200010F8000000070424243F240000F808887B
:100F3000880808000019212020110E0000E0108808
:100F400088180000000F112020110E00003808083A
:100F5000C83808000000003F00000000007088084A
:100F600008887000001C222121221C0000E01008CB
:100F70000810E0000000312222110F00000000C024
:100F8000C0000000000000303000000000000080C1
:100F900000000000000080600000000000008040B1
:100FA00020100800000102040810200040404040CA
:100FB000404040000404040404040400000810201D
:100FC0004080000000201008040201000070480862
:100FD0000808F0000000003036010000C030C828CA
:100FE000E810E0000718272423140B000000C03885
:100FF000E0000000203C23020227382008F88888FF
:1010000088700000203F202020110E00C03008080A
:1010100008083800071820202010080008F80808E1
:101020000810E000203F202020100F0008F88888DA
:10103000E8081000203F20202320180008F88888A6
:10104000E8081000203F200003000000C03008081E
:101050000838000007182020221E020008F80800A7
:101060000008F808203F210101213F20000808F86E
:10107000080800000020203F202000000000080891
:10108000F8080800C08080807F00000008F888C051
:1010900028180800203F20012638200008F8080002
:1010A00000000000203F20202020300008F8F80039
:1010B000F8F80800203F003F003F200008F830C04B
:1010C0000008F808203F200007183F00E01008083B
:1010D0000810E0000F10202020100F0008F808086A
:1010E0000808F000203F210101010000E01008087D
:1010F0000810E0000F18242438504F0008F88888A2
:1011000088887000203F2000030C30200070880881
:10111000080838000038202121221C00180808F88F
:10112000080818000000203F2000000008F8080010
:101130000008F808001F202020201F0008788800E1
:1011400000C83808000007380E010000F80800F851
:101150000008F800033C0700073C030008186880FB
:101160008068180820302C03032C30200838C80071
:10117000C83808000000203F2000000010080808C0
:10118000C83808002038262120201800000000FE62
:10119000020202000000007F40404000000C30C00E
:1011A00000000000000000010638C000000202023A
:1011B000FE000000004040407F00000000000402EC
:1011C0000202040000000000000000000000000017
:1011D0000000000080808080808080800002020407
:1011E00000000000000000000000000000008080FF
:1011F000808000000019242222223F2008F800806D
:1012000080000000003F112020110E00000000802F
:1012100080800000000E11202020110000000080BE
:101220008088F800000E112020103F2000008080F0
:1012300080800000001F222222221300008080F004
:10124000888888180020203F20200000000080802F
:1012500080808000006B94949493600008F8008074
:1012600080800000203F210000203F2000809898CF
:10127000000000000020203F20200000000000802F
:101280009898000000C08080807F000008F800006F
:1012900080808000203F24022D302000000808F8C4
:1012A000000000000020203F20200000808080807F
:1012B00080808000203F20003F20003F8080008011
:1012C00080800000203F210000203F20000080801F
:1012D00080800000001F202020201F0080800080D0
:1012E0008000000080FFA12020110E00000000807F
:1012F00080808000000E112020A0FF808080800070
:101300008080800020203F2120000100000080809C
:10131000808080000033242424241900008080E091
:10132000808000000000001F20200000808000005E
:1013300000808000001F202020103F20808080003F
:101340000080808000010E3008060100808000804F
:10135000008080800F300C030C300F000080800074
:10136000808080000020312E0E312000808080009F
:101370000080808080818E7018060100008080804F
:10138000808080000021302C2221300000000000ED
:10139000807C020200000000003F4040000000008E
:1013A000FF00000000000000FF0000000002027CBF
:1013B000800000000040403F0000000000060101E6
:1013C000020204040000000000000000F013000806
:1013D0000000002014000000280100080414000888
:1013E00014000020740600004401000879F9FFFF92
:1013F00000000000010203040102030406070809BB
:0414000002040608D4
:04000005080000ED02
:00000001FF
